:020000040800F2
:10000000600C0020D12600087D0200087F02000855
:1000100083020008870200088B020008000000002D
:100020000000000000000000000000008F02000837
:1000300091020008000000009302000895020008E9
:10004000EB260008EB260008EB260008EB2600084C
:10005000EB260008EB2600087F140008EB260008BA
:10006000EB260008EB260008EB260008EB2600082C
:10007000EB260008EB260008EB260008EB2600081C
:10008000EB260008EB260008EB260008EB2600080C
:10009000EB260008EB260008EB260008EB260008FC
:1000A000EB260008EB260008EB260008EB260008EC
:1000B000EB260008AD080008F1070008EB26000851
:1000C000EB260008EB260008EB260008EB260008CC
:1000D000EB260008A7250008EB260008EB26000801
:1000E000EB260008EB260008EB260008EB260008AC
:1000F000EB260008EB260008EB260008EB2600089C
:10010000EB260008EB26000881080008EB26000813
:10011000EB260008EB260008EB260008EB2600087B
:10012000EB260008EB260008EB260008EB2600086B
:10013000EB260008EB260008EB260008EB2600085B
:10014000EB260008EB260008EB260008EB2600084B
:10015000EB260008EB260008EB260008EB2600083B
:10016000EB260008EB260008EB260008EB2600082B
:10017000EB260008EB260008EB260008EB2600081B
:10018000EB260008EB26000800F002F800F041F82A
:100190000AA090E8000C82448344AAF10107DA45E2
:1001A00001D100F036F8AFF2090EBAE80F0013F0F3
:1001B000010F18BFFB1A43F00103184780680000C5
:1001C000A0680000103A24BF78C878C1FAD8520756
:1001D00024BF30C830C144BF04680C6070470000C1
:1001E0000023002400250026103A28BF78C1FBD840
:1001F000520728BF30C148BF0B607047732904F015
:100200007984002070471FB504F00AFD1FBD10B5AA
:1002100010BD04F0D3FC1146FFF7F5FF00F008F81D
:1002200004F0F1FC03B4FFF7F2FF03BC02F05CF949
:100230004FF4A06002F06CFAA82002F0D3F84FF45B
:10024000165002F05EF901F0F3F85321054800F072
:10025000A7F905A004F08AFB01F038F901E001F0EC
:10026000FAF9FCE79F8601003C473EBBB6D3ADB42C
:10027000F2BFAACABAC9BDB4FAC2EB00704700BF48
:10028000FEE700BFFEE700BFFEE700BFFEE77047E6
:1002900070477047704700000CB500200190009037
:1002A0007648006840F480307449086000BF7348A5
:1002B000006800F4003000900198401C0190009804
:1002C00018B90198B0F5A04FF1D16C48006800F45E
:1002D000003010B10120009001E000200090009853
:1002E000012846D165484030006840F0805063499D
:1002F000403108606248006840F44040604908604E
:100300005E48083000685D490831086008460068AA
:1003100040F4004008600846006840F4A0500860BF
:100320005848091F0860081F006840F08070091FC6
:10033000086000BF5148006800F000700028F9D044
:1003400040F20570504908604C480830006820F0C1
:1003500003004A49083108600846006840F002007E
:10036000086000BF45480830006800F00C0008280D
:10037000F8D10CBD10B54548006840F47000434901
:1003800008603E48006840F001003C4908600020D9
:100390003A4908310860394800683D490840374902
:1003A00008603C48091D0860081F006820F4802090
:1003B000091F0860002031490C310860FFF76CFF0D
:1003C0004FF0006031498039086010BD70B50020E1
:1003D0000022022300240221284D08352D6805F053
:1003E0000C0020B1042806D0082834D107E02A4D9B
:1003F0002A4E356033E02A4D284E35602FE01F4DE0
:100400002D1D2D68C5F380541C4D2D1D2D6805F044
:100410003F0154B1224DB5FBF1F5184E361D36683B
:10042000C6F3881605FB06F209E01B4DB5FBF1F596
:10043000124E361D3668C6F3881605FB06F20F4DC0
:100440002D1D2D68C5F301456D1C6B00B2FBF3F546
:10045000124E356003E0104D104E356000BF00BFF6
:10046000064D08352D68C5F303150E4E705D0B4D16
:100470002D68C540094E356070BD0000003802404F
:100480000070004008544007003C024088ED00E046
:10049000FFFFF6FE103000240024F40000000020CE
:1004A00000127A00040000201CB50121112002F086
:1004B000C3FC1820009000208DF8040003208DF864
:1004C000050001208DF807006946324802F016FA4F
:1004D0001CBD1CB50121112002F0AEFC01200090D2
:1004E00002208DF8070000208DF8040003208DF80D
:1004F00005006946284802F001FA1CBD10B5044603
:1005000014B10120254908702448007858B31021FF
:10051000204802F055FA50B108211E4802F050FA66
:1005200028B101211C4802F04BFA01281BD15020B0
:1005300001F072FF0020194908701021154802F0DF
:100540003FFA08B9012010BD0821124802F038FA1C
:1005500008B90220F7E701210F4802F031FA01281B
:1005600015D10320EFE710210A4802F029FA0128EB
:100570000DD10821074802F023FA012807D10121F3
:10058000054802F01DFA10B9012004490870002046
:10059000D9E70000001002400000024014000020D3
:1005A00030B58BB004460D460121022002F08DFCCF
:1005B0000121022002F040FC02220021284802F022
:1005C00028FA0120099002208DF8280003208DF8D8
:1005D000290000208DF82A0001208DF82B0009A9A0
:1005E0001F4802F08BF9A8B2ADF818000020ADF852
:1005F0001A000794ADF8200006A91A4803F059FB29
:100600006020ADF804000120ADF806000020ADF830
:10061000100001A9134803F067FC0821114803F0FA
:1006200080FD01210F4803F0AFFB01210D4803F0CD
:10063000C9FB012211460B4803F0DCFF1D208DF899
:10064000000003208DF8010002208DF80200012037
:100650008DF80300684602F060F80BB030BD000072
:1006600000040240000400401CB50121102002F0EB
:10067000E3FB4FF4C070009001208DF804000320CC
:100680008DF8050000208DF8060001208DF8070088
:100690006946154802F032F94FF4C071124802F071
:1006A000A9F91CBD10B50446002C0DDD80210E48B3
:1006B00002F0A0F94FF480710B4802F09DF9214639
:1006C0000A4803F0E8FC0EE0002C0CDC4FF48071CB
:1006D000054802F08FF98021034802F08DF961424C
:1006E000024803F0D8FC10BD001002400004004096
:1006F00030B589B005460C460121042002F0E5FB27
:100700000121082002F098FB4FF44050079002208E
:100710008DF8200003208DF8210000208DF82300A3
:100720008DF8220007A98D4802F0E8F802220C217A
:100730008A4802F06EF902220D21884802F069F918
:100740000495ADF80C400020ADF80E00ADF8140093
:1007500003A9834803F0ADFA0020ADF80000ADF81E
:1007600002000120ADF804000020ADF806000F20C3
:10077000ADF8080069467A4803F072FE0420ADF82F
:1007800000000020ADF802000120ADF804000020B8
:10079000ADF806000F20ADF808006946704803F078
:1007A0005FFE00231A4603216D4803F0F6FF1E206A
:1007B0008DF8180001208DF81B008DF8190002201B
:1007C0008DF81A0006A801F0A8FF0121644803F083
:1007D00025FF0121624803F035FF012211466048E0
:1007E00003F008FF01215E4803F0ECFA09B030BDC8
:1007F00010B501215A4803F014FF012810D15848C0
:10080000008800F01000102805D056480068401CF1
:100810005449086004E053480068401E514908608C
:1008200001214F4803F00EFF10BD7FB504460D4671
:100830000121082002F049FBADF804500020ADF87A
:1008400006000294ADF80C0001A9474803F031FA04
:1008500001221146444803F0CDFE0121424803F035
:10086000B1FA32208DF8000002208DF801008DF8D9
:10087000020001208DF80300684601F04EFF7FBDA5
:1008800010B50121384803F0CCFE012804D13748C7
:100890000068401C354908600121334803F0D2FE4E
:1008A00010BD00202E4924310868704710B5012181
:1008B0002F4803F0B6FE01284AD1FFF7F2FF29497D
:1008C000098800EB0140401E2A490860084600687C
:1008D00029490968401A29490860264800682649BC
:1008E000086027480068012805D126480068401C98
:1008F0002449086008E022480068022804D1214801
:100900000068401E1F4908601F480068B0F52F7F2F
:1009100006DB1D4801681D48006800F07CFD17E0FB
:10092000194801681948006800F075FD28B9164893
:100930000068401C144908600AE013480168134825
:10094000006800F068FD012802D100200E4908600F
:100950000121074803F076FE10BD0000000C0240A4
:100960000008004020000020000C0040180000207B
:100970000004004024000020280000202C0000205B
:10098000800000203000002034000020840000207F
:1009900010B5044600BF0221F94802F0B1FD00285D
:1009A000F9D02146F64802F062FD00BF0121F4486B
:1009B00002F0A6FD0028F9D0F14802F055FDC0B2C2
:1009C00010BD70B504460D467E2000EA4406102195
:1009D000EC4802F011F83046FFF7DAFF2846FFF73F
:1009E000D7FF1021E74802F005F870BD70B5044646
:1009F0007E2000EA440040F080051021E14801F02B
:100A0000FBFF2846FFF7C4FF0020FFF7C1FF0646A3
:100A10001021DC4801F0EEFF304670BD70B5054690
:100A20000C462846FFF7E2FF064646EA0401284640
:100A3000FFF7C7FF70BD10B51420FFF7D7FF0446BE
:100A400004F0030018B903211420FFF7E7FF10BDDD
:100A500070B505460C462846FFF7C8FF064626EA4D
:100A600004012846FFF7ADFF70BD10B50446412CC8
:100A700024D108210846FFF7EBFF3D211120FFF7A5
:100A8000A0FF86211720FFF79CFF7F212620FFF77C
:100A900098FF1E212D20FFF794FF00212C20FFF747
:100AA00090FF8D212A20FFF78CFF3E212B20FFF79E
:100AB00088FF022001F0B0FCFFF7BDFF10BD10B5AC
:100AC00003211420FFF7C4FF10BD10B50821AD4865
:100AD00001F090FF012001F09FFC0821A94801F0DE
:100AE0008BFF012001F098FC0821A64801F082FF4D
:100AF000012001F091FC0F210120FFF762FF00BFF0
:100B00000120FFF773FF00F010000028F8D101204A
:100B100001F082FC3D211120FFF753FF1E212D2003
:100B2000FFF74FFF00212C20FFF74BFF8D212A20DC
:100B3000FFF747FF3E212B20FFF743FF4021152001
:100B4000FFF73FFF10BD00B587B00121084602F056
:100B500073F90121080302F0C9F9E0200090022096
:100B60008DF8040000208DF8060003208DF80500A4
:100B700001208DF8070005221146824801F049FF47
:100B8000052206217F4801F044FF052207217D4808
:100B900001F03FFF0121080302F0FDF900214FF4AD
:100BA000805002F0F8F9202000906946754801F065
:100BB000A5FE402000906946724801F09FFE80200B
:100BC000009069466F4801F099FE102000900120C6
:100BD0008DF8040003208DF8050000208DF8070033
:100BE0008DF806006946674801F088FE08200090ED
:100BF0006946644801F082FE1021624801F0FAFE65
:100C00000020ADF808004FF48270ADF80A00002013
:100C1000ADF80C00ADF80E00ADF810004FF4007008
:100C2000ADF812002820ADF814000020ADF8160031
:100C30000720ADF8180002A9514802F09DFA0121E1
:100C40004F4802F093FB07B000BD10B5FFF77BFFE4
:100C500008214C4801F0CEFEFFF737FFFFF72FFFCA
:100C6000022001F0D9FBFFF7E6FE4120FFF7FDFE71
:100C700010BD2DE9FE4305460E46174698460A9CD0
:100C8000694641A003F072FEBDE8FE832DE9FE4FE8
:100C90000646884691469A46DDF830B0BB20029061
:100CA0000020019000900C2E06D00E2E09D11220AB
:100CB00001901020009005E07720019030200090F6
:100CC00000E000BF00BF019840F080010220FFF764
:100CD00078FE80210420FFF7BBFE00210120FFF7F2
:100CE00070FE80210A20FFF799FE002505E018F824
:100CF00005100920FFF765FE6D1C4D45F7D3314601
:100D00000120FFF75EFE0C2E03D180210D20FFF79E
:100D100085FE4FF47A7500BF0420FFF767FE044696
:100D20006D1E35B104F0010018B90098204000286C
:100D3000F2D080210D20FFF78BFE05B30620FFF7D0
:100D400055FE00F01B0078BB262002900198204041
:100D500000F0010008B1CC2002900C2E30D10A2006
:100D6000FFF744FE04460C20FFF740FE00F00707A3
:100D700087B1601E07EBC000CBF800000DE01FE05C
:100D8000003001400000024049443E3E3E25730DC4
:100D90000A000000E000CBF8000004B90124122C86
:100DA00000DD1224002506E008E00920FFF71EFE02
:100DB0000AF805006D1CA542F7D301E0BB200290A4
:100DC00080210C20FFF72AFE00210120FFF7F9FD0A
:100DD0000298BDE8FE8F70B588B005460C46082124
:100DE0000846FFF735FE07210D20FFF7EAFD032136
:100DF0001420FFF713FE8DF80C5002A803AB01225C
:100E000003A900900C20FFF741FF0646262E09D1CA
:100E10000298102806D19DF80C0020709DF80D0056
:100E2000607000E0BB26304608B070BDF0B587B0FA
:100E30000546002708210846FFF70AFE00210D207D
:100E4000FFF7BFFD80210E20FFF702FE93208DF8F3
:100E5000080020208DF8090001A802AB022202A997
:100E600000900C20FFF712FF0646262E10D100241A
:100E700007E002A8005D285502A8005D4740601CFD
:100E8000C4B2042CF5DB02A8005DB84200D0BB263A
:100E900080210E20FFF7C2FD304607B0F0BD2DE9DE
:100EA000F04107468846154604210520FFF7D0FD8E
:100EB00000210120FFF785FD80210A20FFF7AEFD0C
:100EC000002405E0395D0920FFF77BFD601CC4B2FA
:100ED0004445F7DB03210120FFF773FDFF2400BF2A
:100EE0000520FFF783FD0646601EC4B21CB106F064
:100EF00004000028F4D02220FFF778FD287021207C
:100F0000FFF774FD6870BDE8F08170B588B00546E4
:100F100093208DF80C0070208DF80D0000208DF8C6
:100F2000120000240BE0295D03AAA01C11549DF8B7
:100F30001200295D48408DF81200601CC4B2042CD8
:100F4000F1DB0DF11302072103A8FFF7A8FF082129
:100F50000846FFF77DFD02A803AB092203A9009014
:100F60000C20FFF793FE0646262E03D10298182880
:100F700000D100E0BB26304608B070BD2DE9F0433B
:100F800087B006460F46904699468DF808608DF862
:100F90000970002406E018F8041002AAA01C1154DD
:100FA000601CC4B2062CF6DB002407E019F804101C
:100FB00002AA04F108001154601CC4B2062CF5DB2F
:100FC00001A802AB0C2202A900900E20FFF75EFEE2
:100FD0000546262D05D10820FFF708FD00F0080082
:100FE00000B9BB25284607B0BDE8F083F0B587B04F
:100FF00006460F46A0208DF808008DF809600DF117
:101000000A02022102A8FFF74AFF01A802AB04224C
:1010100002A900900C20FFF739FE0546262D08D1C5
:101020000198042805D19DF8080000F00F000A2857
:1010300000D0BB25262D27D11022394602A803F067
:10104000FEFC002404E0385D02A90855601CC4B20F
:10105000102CF8DB06AA102102A8FFF720FF01A838
:1010600002AB122202A900900C20FFF70FFE0546EA
:10107000262D08D10198042805D19DF8080000F01C
:101080000F000A2800D0BB25284607B0F0BDF0B5F8
:1010900087B005460E4630208DF808008DF80950BF
:1010A0000DF10A02022102A8FFF7F9FE01A802AB26
:1010B000042202A900900C20FFF7E8FD0746262F26
:1010C0000CD10198902809D1002404E002A8005D09
:1010D0003055601CC4B2102CF8DB00E0BB2738464A
:1010E00007B0F0BD00B587B050208DF80800002093
:1010F0008DF809000DF10A02022102A8FFF7CFFEC8
:1011000001A802AB042202A900900C20FFF7BEFD4B
:10111000262007B000BD70B50446FFF796FD0025F8
:101120000CB1012C43D13F495220FFF754FE262831
:1011300006D13D48FFF77AFE3B48FFF7E6FE012562
:10114000D4B93948007839490978884210D0012D3E
:101150000ED13548007835490870334840784870DA
:101160003148807888703048C078C870002532E0F7
:10117000012D30D1012070BD2B4800782C49097811
:10118000884210D0012D0ED12748007828490870D8
:101190002548407848702448807888702248C07874
:1011A000C870002517E0012D15D10120E3E7022CBE
:1011B00007D100201D49087048708870C870012050
:1011C000D9E7032C07D100201949087048708870AE
:1011D000C8700120CFE70020CDE710B5114952209B
:1011E000FFF7F9FD262807D10F48FFF71FFE0E482D
:1011F000FFF78BFE012010BD0020FCE70246002116
:101200000CE0505C094B5B5C984206D0505C084B8C
:101210005B5C984201D000207047491C0329F0DD37
:101220000120F9E7380000203A0000203E000020AD
:101230004200002010B588B004469FED4E0A8DEDA7
:10124000030A9FED4D0A8DED040A9FED4C0A8DEDCA
:10125000050A4B480068201A00EE100AB8EEC00AD2
:101260008DED010A9DED060ADDED010A30EE200A42
:101270008DED060A9DED010ADDED030A20EE200A40
:10128000DDED060A9DED041A00EE810A8DED070AD8
:101290009DED070ABDEEC00A10EE101A08B2FFF766
:1012A00001FA08B010BD10B52DED028B88B00446D0
:1012B000B2EE080A8DED030A9FED320A8DED040AA5
:1012C0009FED2E0A8DED050A2F480068201A00EECA
:1012D000100AB8EEC00A8DED010A9DED060ADDED9B
:1012E000010A30EE200A8DED060A9DED060ADDEDBD
:1012F000040A20EE200AB0EE408A9FED240AB4EEE4
:10130000C08AF1EE10FA04DB9FED200AB0EE408AAD
:101310000AE09FED1F0AB4EEC08AF1EE10FA03D87E
:101320009FED1B0AB0EE408ADDED010A9DED031A28
:10133000B0EE480A00EE810A8DED070A9DED070A1E
:10134000BDEEC00A10EE101A08B2FFF7ABF908B0F4
:10135000BDEC028B10BD10B50446012C04D140F247
:101360009970FFF7A0FF03E06FF4F360FFF79BFFB6
:1013700010BD000000A00C4600C0DA4500000000CF
:101380001C0000200AD7A33C2400002000409C46FB
:1013900000409CC610B542A003F0E8FA00F01DFC26
:1013A00000F0E9FB4FF4FA7001F07EF801214048AB
:1013B00003F048F900213E4802F004FD012108072E
:1013C00001F083FD012003F033FA03F0A6FA10BD0B
:1013D00070B505460C4635B9B4F52F7F01DBFFF734
:1013E000D9FF002070BD0120FCE710B531A003F04B
:1013F000BDFA00F0F2FB00F0BEFB4FF4FA7001F012
:1014000053F801212A4803F01DF90021284802F071
:10141000D9FC30BF10BD70B505460C4635B9B4F5E2
:101420002F7F01DBFFF7E1FF002070BD0120FCE70B
:101430000EB50121880301F059FD0021084602F094
:10144000A0F80120009000208DF8040008208DF8FD
:10145000050001208DF80600684602F003FB062017
:101460008DF8080000208DF8090002208DF80A0090
:1014700001208DF80B0002A801F04FF90EBD10B548
:101480000A2001F011F800200E4908600E4908609A
:10149000012002F058FB0121054802F093FC10BD29
:1014A0003C473EBDF8C8EBB4FDBBFAC4A3CABD00BF
:1014B000000400403C473EBDF8C8EBCBAFC3DFC4DF
:1014C000A3CABD00880000203400002010B500F041
:1014D000D9FEFEF7E9FFFEF7FCFF10BD08B500F0EE
:1014E0007CFB00200C23F5A201210090084600F0AF
:1014F00007FD01200C23F7A211210090184600F0EF
:10150000FFFC01200C23F5A221210090184600F0D9
:10151000F7FC01200C23F3A231210090184600F0C3
:10152000EFFC00F028FB4FF4FA7000F0BDFF08BD9F
:101530002DE9F8430446012501260127A8460CB9E8
:1015400000250BE0012C01D1002607E0022C01D17F
:10155000002703E0032C01D14FF00008E8B210236C
:10156000E2A201210090084600F0CAFCF0B210236C
:10157000E2A211210090012000F0C2FCF8B2102379
:10158000E2A221210090012000F0BAFC08F0FF0047
:101590001023E2A231210090012000F0B1FC00F004
:1015A000EAFA4FF4FA7000F07FFFBDE8F88308B55F
:1015B00001200C23DDA21121009000F0A1FC0120EC
:1015C0000C23DBA22121009000F09AFC01200C23C7
:1015D000D7A23121009000F093FC00F0CCFA322029
:1015E00000F062FF08BD08B501200C23D0A2112134
:1015F000009000F085FC01200C23CCA2212100905A
:1016000000F07EFC01200C23C9A23121009000F0E3
:1016100077FC00F0B0FA322000F046FF08BD08B5B4
:1016200001200C23C2A21121009000F069FC0120CE
:101630000C23BFA22121009000F062FC01200C23AA
:10164000BAA23121009000F05BFC00F094FA322045
:1016500000F02AFF08BD38B5B648006800284CD114
:10166000FFF73CFF322000F01FFF0020B249086066
:1016700041E0B2480068012804D0022805D00328C0
:1016800009D105E0FFF793FF05E0FFF7ACFF02E0AB
:10169000FFF7C5FF00BF00BF002408E00020FEF7F1
:1016A0002DFF04461CB10120A349086000E0F5E7C6
:1016B00000BF012C0BD1A1480068401C9F49086065
:1016C00008460068042815D10120086012E0022CA9
:1016D0000AD19A480068401E984908600846006888
:1016E00040B90320086005E0032C03D10120914993
:1016F000086001E000BFBCE771E18E480068012886
:10170000FAD100F06AFA8D480068012804D0022856
:1017100055D0032852D15EE189480068FFF708FFE1
:1017200032E0002408E00020FEF7E8FE04461CB189
:1017300001208149086000E0F5E700BF012C0BD1D2
:101740007F480068401C7E490860084600680428FD
:1017500001D10020086018E0022C0BD17848006805
:10176000401E7749086008460068401C08B90320FD
:1017700008600AE0032C06D172A003F0F7F80120FC
:101780007249086001E000BFCBE700BF12E0002013
:10179000694908606A480068FFF7BDFC012809D163
:1017A000654908606AA003F0E1F800206749086015
:1017B00060490860654800680128E8D00EE1012012
:1017C000102367A20146009000F09AFB012010232D
:1017D00065A21121009000F093FB00F0CCF94FF4CA
:1017E000FA7000F061FEFFF730FA00214FF6FF704B
:1017F000FEF77EFF44F29F114FF6FF70FFF715F8DA
:10180000FEF732FF5BA003F0B1F8E1E000204A49A7
:101810000860FEF773FE032806D1002045490860E2
:10182000012045490860D4E0FFF7D7FC012842D1E8
:10183000414908605248FFF7E1FC01283CD1514979
:10184000086051A003F092F80120102351A2112149
:101850000090292000F054FB00F08DF903E0494886
:101860000068FFF778FD47480068012803D14B481E
:1018700000686428F3DD02204249086048A003F0B4
:1018800075F80120102349A211210090292000F0B1
:1018900037FB00F070F903E03A480068FFF75BFDA2
:1018A00038480068022803D13C4800680028F3DA71
:1018B0000020344908608BE07CE0000020202020DC
:1018C00020202020204C495354202020202020205C
:1018D0002020200052657365727665005265616450
:1018E00000000000536C6565700000005265636F76
:1018F00064696E6720436172645F31005265636F93
:1019000064696E6720436172645F320044656C6590
:10191000746520436172645F3100000044656C654A
:10192000746520436172645F320000002A00000089
:101930002000000088000020840000208C0000208F
:10194000900000203C473EC8B7C8CF00940000205C
:101950003C473ED2D1CDEAB3C9B2D9D7F700000097
:101960004E6F77A3BA000000446F6F7220434C4F54
:10197000534500003C473EC7EBCBA2BFA800000088
:101980003A000020800000203C473EC3C5BDABB4F8
:10199000F2BFAA004F50454E20000000300000204A
:1019A0003C473EC3C5BDABB9D8B1D500434C4F533E
:1019B000450000000A48FFF721FC48B909A002F0E1
:1019C000D5FF4FF4FA7000F06FFD08A002F0CEFFD3
:1019D0001CE700BF02E0FFF708FD00BF00BF38BDF5
:1019E0003A0000203C473EB4EDCEF3003C433E00BD
:1019F0000A2000BF011EA0F10102D0B2FAD1704747
:101A000010B52021F84800F0F7FF4021F64800F01B
:101A1000F1FFFFF7EDFF2021F34800F0EBFF10BDD1
:101A200010B52021F04800F0E5FFFFF7E1FF40216D
:101A3000ED4800F0DFFFFFF7DBFF4021EA4800F050
:101A4000DBFFFFF7D5FF10BD70B5044600251BE096
:101A500004F0800020B12021E34800F0CBFF03E038
:101A60002021E14800F0C8FFFFF7C2FF4021DE4817
:101A700000F0C0FFFFF7BCFF4021DB4800F0BCFFD7
:101A80006006040E681CC5B2082DE1DB70BD10B500
:101A90002021D54800F0AEFF4021D34800F0AAFF36
:101AA000FFF7A6FF2021D04800F0A6FFFFF7A0FF18
:101AB0004021CD4800F0A0FFFFF79AFF10BD70B5A0
:101AC00005460C46FFF7E3FF7820FFF7BDFFFFF761
:101AD000A7FF1CB14020FFF7B7FF02E00020FFF78F
:101AE000B3FFFFF79DFF2846FFF7AEFFFFF798FF14
:101AF000FFF786FF70BD10B504461CB90021A62073
:101B0000FFF7DDFF012C03D10021A720FFF7D7FF4E
:101B100010BD10B504463CB90021C820FFF7CFFF27
:101B20000021A120FFF7CBFF012C07D10021C0200D
:101B3000FFF7C5FF0021A020FFF7C1FF10BD10B5C2
:101B400000218D20FFF7BBFF00211420FFF7B7FF16
:101B50000021AF20FFF7B3FF10BD10B500218D208D
:101B6000FFF7ADFF00211020FFF7A9FF0021AE20F5
:101B7000FFF7A5FF10BD70B500242BE004F1B00104
:101B8000C8B20021FFF79BFF00210846FFF797FF2F
:101B900000211020FFF793FFFFF779FF7820FFF770
:101BA00053FFFFF73DFF4020FFF74EFFFFF738FFE1
:101BB000002509E08D4901EBC501085DFFF744FFF1
:101BC000FFF72EFF681CC5B2802DF3DBFFF718FF6F
:101BD000601CC4B2082CD1DB70BD70B500240CE0D1
:101BE000002506E00020814901EBC5010855681C6D
:101BF000C5B2802DF6DB601CC4B2082CF0DBFFF709
:101C0000BAFF70BDF0B514460B46CF1701EB5777FE
:101C1000C7F3C702CF1701EB5777FF10A1EBC70738
:101C2000FEB20123B340DDB24CB1704B03EBC003F5
:101C30009B5C2B436D4F07EBC007BB541AE06B4B0B
:101C400003EBC0039B5CDB43684F07EBC007BB544F
:101C5000664B03EBC0039B5C2B43644F07EBC00751
:101C6000BB54624B03EBC0039B5CDB435F4F07EB52
:101C7000C007BB54F0BD2DE9FF4F84B081468A46B2
:101C80000020029083460698A0EB09040798A0EB79
:101C90000A06CDF80490CDF800A0002C01DD012744
:101CA00005E00CB9002702E04FF0FF376442002E38
:101CB00002DD4FF0010806E016B94FF0000802E01F
:101CC0004FF0FF386642B44201DD254600E035465C
:101CD000002003901EE0009AD1B2019AD0B2119A6E
:101CE000FFF790FF029820440290B3440298A84264
:101CF00005DD0298401B0290019838440190AB45E5
:101D000004DDABEB050B0098404400900398401CA9
:101D100080B20390691C03988842DCDB08B0BDE800
:101D2000F08F2DE9F04306460F46904600254446C5
:101D300043E03A1BD1B27219D0B20122FFF762FF21
:101D40003A1BD1B2721BD0B20122FFF75BFF3A19E6
:101D5000D1B2721BD0B20122FFF754FF3A19D1B2AF
:101D60007219D0B20122FFF74DFF7A19D1B23219A0
:101D7000D0B20122FFF746FF7A1BD1B23219D0B29E
:101D80000122FFF73FFF7A1BD1B2321BD0B20122F2
:101D9000FFF738FF7A19D1B2321BD0B20122FFF718
:101DA00031FF6D1C05FB05F004FB040008FB18095E
:101DB000B9F1000F01DD641E6D1E6000604308FB79
:101DC00008F18842B5DABDE8F0832DE9FE4F0746F9
:101DD000884692461C460197CDF80080082C07D112
:101DE0004FF0060924E00000000C0240B40000207F
:101DF0002046E31704EB5373DB1021464FEAE47CE3
:101E000004EB5C7C4FEAEC0CA4EBCC0CBCF1000FB7
:101E100002D04FF0010C01E04FF0000C6344224669
:101E200004EBD27C4FEA6C0C03FB0CF303F0FF09CC
:101E3000AAF12000C6B200255EE0082C07D106EB0F
:101E40004600FE4901EB400010F805B01DE00C2CE7
:101E500007D106EB4600FA4901EB800010F805B007
:101E600013E0102C05D1F74800EB061010F805B070
:101E70000BE0182C07D106EBC600F34901EB8000FC
:101E800010F805B001E0BDE8FE8F002002901CE0D4
:101E90000BF0010028B1414638460C9AFFF7B2FE1C
:101EA00009E00C9808B9012000E0002002464146F4
:101EB0003846FFF7A7FE4FEA6B0B08F1010000F070
:101EC000FF080298401CC0B2029002980828DFDB8D
:101ED000781CC7B2082C0BD004EBD4714A100199BE
:101EE000791A8A4204D1019F00980830C0B200904C
:101EF000DDF80080681CC5B24D459EDB00BFC2E71F
:101F00002DE9F84106460F4614461D46DDF81C80B3
:101F100013E0CDF8008022782B4639463046FFF793
:101F200054FF082D02D1B01DC6B205E0284605EBCE
:101F3000D07106EB6101CEB2641C2078202802DB50
:101F400020787E28E5DDBDE8F88110B50246012045
:101F500000E050430B1EA1F10104E1B2F9D110BD24
:101F60002DE9FF4F82B0064691461F46DDE90F4A34
:101F70004FF0000B082C01D14FF0020B002530E090
:101F8000781B401EC1B20A20FFF7DFFFB9FBF0F05B
:101F90000A21B0FBF1F201FB1208B8F1000F0ED1DB
:101FA00004EBD4710BEB610101FB0561C8B2234660
:101FB0003022CDE900A40399FFF707FF0FE004EBFF
:101FC000D4710BEB610101FB0561C8B208F130016E
:101FD000CAB22346CDE900A40399FFF7F6FE681CB8
:101FE000C5B2BD42CCDB06B0BDE8F08F2DE9FC4F99
:101FF0000746884616461C46BB46CDF80480204658
:10200000E21704EB5272D2102146E31704EB53732C
:10201000DB10A4EBC3030BB1012300E000231A443F
:10202000624392B20092002555E0102C05D18748FA
:1020300000EB461010F805A01BE0182C07D106EBAA
:10204000C600834901EBC00010F805A011E0202C68
:1020500005D1804800EBC61010F805A009E0402C1F
:1020600005D17D4800EB462010F805A001E0BDE851
:10207000FC8F4FF000091CE00AF0010028B1414636
:1020800038460B9AFFF7BEFD09E00B9808B901200E
:1020900000E00020024641463846FFF7B3FD4FEA14
:1020A0006A0A08F1010000F0FF0809F1010000F0E0
:1020B000FF09B9F1080FDFDB781CC7B2A7EB0B00F3
:1020C000A04204D15F4601980830C0B20190DDF80B
:1020D0000480681C85B200988542A6DB00BFC6E775
:1020E00008B5804689469246002600274BE04FB946
:1020F0001023324618218020CDF800A0FFF776FF8C
:10210000701CC6B2464522D14FF0000B1AE00124E4
:1021100010E000250AE0514800EBC400415D601E5C
:102120004E4A02EBC0004155681CC5B2082DF2DBD7
:10213000601CC4B2902CECDBFFF71DFD0BF101001D
:1021400000F0FF0B4FEA09105845E0DC0026781C30
:10215000C7B2102F00D10027012410E000250AE0AB
:102160003E4800EBC400415D601E3C4A02EBC000EB
:102170004155681CC5B2082DF2DB601CC4B2902C1E
:10218000ECDBFFF7F8FCB2E72DE9FF4F05460E4602
:1021900017461C46DDF838904FF0000A0095B3460C
:1021A0002046E21704EB5272D2102146E31704EBEB
:1021B0005373DB10A4EBC3030BB1012300E0002336
:1021C0001A44D4B24FF0000858E0002003904EE0CB
:1021D0000D9810F80A0002900AF101001FFA80FA27
:1021E000002001901DE0029800F0010028B14A464D
:1021F00031462846FFF706FD0AE0B9F1000F01D18C
:10220000012000E00020024631462846FFF7FAFC94
:10221000029840100290701CC6B20198401CC0B2D7
:10222000019001980828DEDB681CC5B20098281AC6
:10223000B84217D1009D0BF1080011E02A4C0008AC
:10224000524E0008C6520008B65800081266000830
:1022500072670008BA6700083A680008B4000020F6
:1022600000F0FF0B5E460398401CC0B20390039839
:10227000B842ADDB08F1010000F0FF08A045A4DB87
:10228000BDE8FF8F1CB50121482000F0D5FD2020BE
:10229000009001208DF804008DF8060003208DF8D1
:1022A000050001208DF8070069464D4800F026FB27
:1022B0001020009000208DF806006946484800F084
:1022C0001DFB4020009001208DF804008DF80600D1
:1022D00003208DF8050001208DF80700694640486D
:1022E00000F00CFB10213E4800F086FBC82000F0F7
:1022F000DBF810213A4800F07DFB0021AE20FFF70B
:10230000DEFB00210846FFF7DAFB00211020FFF773
:10231000D6FB00214020FFF7D2FB00218120FFF7F0
:10232000CEFB0021CF20FFF7CAFB0021A120FFF741
:10233000C6FB0021C820FFF7C2FB0021A620FFF743
:10234000BEFB0021A820FFF7BAFB00213F20FFF7CA
:10235000B6FB0021D320FFF7B2FB00210846FFF7B0
:10236000AEFB0021D520FFF7AAFB00218020FFF75C
:10237000A6FB0021D920FFF7A2FB0021F120FFF7E7
:102380009EFB0021DA20FFF79AFB00211220FFF7C5
:1023900096FB0021DB20FFF792FB00214020FFF796
:1023A0008EFB00212020FFF78AFB00210220FFF78F
:1023B00086FB00218D20FFF782FB00211420FFF710
:1023C0007EFB0021A420FFF77AFB0021A620FFF767
:1023D00076FBFFF702FC0021AF20FFF770FB1CBD6E
:1023E000000C024010B504466FF0040000F0E2F962
:1023F000E11704EB5171C1F3C701394A117010465E
:10240000007800EB4001C1EBC0104FF6FF7101EA0C
:10241000C0003449088010BD0146314A12784A4351
:102420004FF0E0235A6100229A611A46126942F085
:1024300001021A6100BF4FF0E022106900F00102B2
:102440001AB100F48032002AF5D04FF0E022126970
:1024500022F001024FF0E0231A6100229A617047D6
:102460000146204A12884A434FF0E0235A61002275
:102470009A611A46126942F001021A6100BF4FF0D8
:10248000E022106900F001021AB100F48032002A43
:10249000F5D04FF0E022126922F001024FF0E02364
:1024A0001A6100229A61704770B504464FF40770B4
:1024B00094FBF0F0C6B24FF4077094FBF0F100FB10
:1024C000114085B205E04FF40770FFF7C9FF701E99
:1024D000C6B2002EF7D115B12846FFF7C1FF70BD77
:1024E000980000209A00002000BF704700BF744A87
:1024F000128802F04002002AF9D0C2B2704B9A80D2
:10250000704710B588B004460121084600F094FCDD
:102510000121102000F0EAFC07220921694800F09F
:1025200078FA07220A21674800F073FA4FF4C06076
:10253000069002208DF81C008DF81D0000208DF8FB
:102540001E0001208DF81F0006A95E4800F0D6F994
:1025500002940020ADF80C00ADF80E00ADF81000AC
:10256000ADF814000C20ADF8120002A9544801F097
:10257000A8F80121524801F02CF9012240F225511E
:102580004F4801F0DCF925208DF8040003208DF878
:1025900005008DF8060001208DF8070001A800F065
:1025A000BCF808B010BD10B540F22551444801F008
:1025B00001FA10B3424801F03BF9C4B24248008826
:1025C00000F40040C8B94048008800F4804060B181
:1025D0000A2C03D000203C49088020E03A480088BB
:1025E00040F400403849088019E00D2C06D13648E7
:1025F000008840F480403449088010E03248008868
:10260000C0F30D0031490C542F480088401C2E495E
:10261000088008460088C72801DD0020088010BD1A
:1026200010B504462146264801F0FEF800BF80217F
:10263000234801F0A9F90028F9D010BD70B505466E
:102640000E46002404E0285DFFF7EAFF601C84B218
:10265000B442F8DB70BD70B50446002504E0605D4F
:10266000FFF7DEFF681CC5B2605D0028F7D170BDC2
:1026700010B50246012000E050430B1EA1F10101FC
:10268000FAD110BD2DE9F04106460C46002512E0B6
:10269000601B411E0A20FFF7EBFFB6FBF0F00A219A
:1026A000B0FBF1F201FB120000F130073846FFF7F2
:1026B000B7FF681CC5B2A542EADBBDE8F0810000A7
:1026C0000010014000000240A0000020340500205E
:1026D0000948804709480047FEE7FEE7FEE7FEE7B6
:1026E000FEE7FEE7FEE7FEE7FEE7FEE704480549F2
:1026F000054A064B70470000750300088901000871
:1027000060060020600C00206008002060080020A7
:1027100032490143324A1160704770B500210023ED
:102720000F22C4781CB32E4C246804F4E064C4F572
:10273000E064C4F30721C1F10404E3B20A41447820
:102740009C40E1B28478144021430C07210E254CB3
:1027500005786155047804F01F050124AC40057824
:102760006D11AD0005F1E025C5F8004109E00478E0
:1027700004F01F050124AC401B4D0678761145F886
:10278000264070BD194A0A400243154B1B1F1A60B0
:10279000704739B1124A121D12680243104B1B1DBB
:1027A0001A6006E00E4A121D126882430C4B1B1D74
:1027B0001A607047042808D14FF0E021096941F000
:1027C00004014FF0E022116107E04FF0E0210969B8
:1027D00021F004014FF0E022116170470000FA057A
:1027E0000CED00E000E400E080E100E080FFFF1F6E
:1027F00010B504469848844208D10121084600F0EB
:1028000086FB0021012000F082FB76E093488442A1
:1028100008D10121022000F07AFB0021022000F003
:1028200076FB6AE08E48844208D10121042000F042
:102830006EFB0021042000F06AFB5EE089488442C0
:1028400008D10121082000F062FB0021082000F0DF
:102850005EFB52E08448844208D10121102000F040
:1028600056FB0021102000F052FB46E07F488442D6
:1028700008D10121202000F04AFB0021202000F097
:1028800046FB3AE07A48844208D10121402000F01A
:102890003EFB0021402000F03AFB2EE075488442C8
:1028A00008D10121802000F032FB0021802000F0BF
:1028B0002EFB22E07048844208D10121801500F0EF
:1028C00026FB0021A01500F022FB16E06B48844295
:1028D00008D10121401500F01AFB0021601500F01D
:1028E00016FB0AE06648844207D10121001500F07A
:1028F0000EFB0021201500F00AFB10BDF0B50A46C2
:1029000000210023002400BF3DE0012505FA01F36A
:10291000156805EA03049C4234D105684F0003267C
:10292000BE40B543056015794E00B5400668354395
:1029300005601579012D02D01579022D16D1856813
:102940004F000326BE40B543856055794E00B54023
:10295000866835438560456801268E40B5434560ED
:10296000456896798E40B6B235434560C5684F00DC
:102970000326BE40B543C560D5794E00B540C66854
:102980003543C560491C1029BFD3F0BD4FF6FF7118
:1029900001600021017141718171C171704708B5F9
:1029A0004FF480320092009A0A430092009AC2616A
:1029B000C161009AC261C2690092C269009208BDF9
:1029C0000246002013690B400BB1012000E00020FB
:1029D00070470146086980B270470246002053697B
:1029E0000B400BB1012000E0002070470146486910
:1029F00080B2704701837047418370470AB10183F9
:102A000000E0418370474161704742694A4042613A
:102A10007047F0B5002300244D07ED0E02FA05F3D0
:102A2000CE1000F1200555F826504E07F70E0F2660
:102A3000BE40B543CF1000F1200646F82750CE1017
:102A400000F1200555F8265045EA0304CE1000F1A8
:102A5000200545F82640F0BD000002400004024079
:102A600000080240000C0240001002400014024026
:102A700000180240001C02400020024000240240D6
:102A800000280240F948006840F00100F74908605A
:102A90000020F64908310860F4480068F44908400D
:102AA000F2490860F348091D0860F348EF49843192
:102AB0000860F0481038091D0860EC48006820F4F0
:102AC0008020EA4908600020E8490C310860E749A5
:102AD0008C31086070470021E44A921C1170114645
:102AE0000870704710B501460022002300204A11EB
:102AF000012A02D1DD4C236808E0022A03D1DB4C15
:102B00007034236802E0D94C7434236801F01F024A
:102B1000012494401C400CB1012000E0002010BDB5
:102B200038B5002000900024002500BF3120FFF7B9
:102B3000D9FF05460098401C00900098B0F5A04FC2
:102B400001D0002DF2D03120FFF7CCFF08B10124D5
:102B500000E00024204638BD01460020C34A10682A
:102B600020F0F80040EAC10010607047C3490860D7
:102B700070470021BD4A703211701170012802D0D7
:102B800004280AD104E00121B84A7032117005E02E
:102B90000521B64A7032117000E000BF00BF7047D7
:102BA000B7490860704770B5049C41EA8215012658
:102BB000C6EB530645EA0645054345EA0465AB4EB8
:102BC000361D356070BDAD4908667047820142EA26
:102BD0000172A64B84331A607047A8498866704713
:102BE00010B5830143EA016343EA02739F4C8834C2
:102BF000236010BDA14908677047A049C8647047A9
:102C000002460020994B0833186820F0EC6042EA35
:102C100001031843954B08331860704702460020A3
:102C2000924B0833186820F0784042EA01031843B9
:102C30008E4B083318607047014600208B4A0832DB
:102C4000106820F003000843106070478748083080
:102C5000006800F00C00704701460020834A0832EB
:102C6000106820F0F0000843106070470146002013
:102C70007E4A0832106820F4E05008431060704724
:102C800001460020794A0832106820F4604040EA8A
:102C9000C10010607047F0B5002100220024022519
:102CA00000260223714F08373F6807F00C0121B15D
:102CB000042905D0082937D105E0724F076036E0B6
:102CC000714F076033E0694F3F1D3F68C7F380567F
:102CD000664F3F1D3F6807F03F036EB16A4FB7FB79
:102CE000F3F7DFF888C10CF1040CDCF800C0CCF37A
:102CF000881C07FB0CF40CE0624FB7FBF3F7DFF81E
:102D00006CC10CF1040CDCF800C0CCF3881C07FB90
:102D10000CF4564F3F1D3F68C7F301477F1C7D00F1
:102D2000B4FBF5F7076002E0564F076000BF00BF35
:102D30004E4F08373F6807F0F0010909534F7A5C9E
:102D40000768D7404760494F08373F6807F4E051AC
:102D5000890A4E4F7A5C4768D7408760434F0837EF
:102D60003F6807F46041490B484F7A5C4768D74099
:102D7000C760F0BD002100F44072B2F5407F0AD177
:102D80003A4A0832116821F4F811414A02401143CD
:102D9000364A08321160354A70321268C0F30B03AC
:102DA0001A43324B70331A60704735494439086012
:102DB00070473349403908607047364908607047AA
:102DC00001460020294A8C32106820F01F004A1E5C
:102DD0001043264A8C321060704701460020234A77
:102DE0008C32106820F4F8504A1E40EA02201F4A34
:102DF0008C3210607047014600201C4A8C321068EB
:102E000020F4401008431060704701460020174A24
:102E10008C32106820F4400008431060704701466F
:102E20000020124A8C32106820F4403008431060B1
:102E3000704719490860704739B10C4A303212683E
:102E400002430A4B30331A6006E0084A30321268F7
:102E50008243064B30331A607047F9B1034A34326B
:102E600012680243014B34331A601CE00038024000
:102E7000FFFFF6EA10300024003000200000474237
:102E8000800E47420024F40000127A00A2000020C5
:102E9000FFFCFF0F5C014742E01147428F4A126876
:102EA00082438E4B1A60704739B18C4A121D1268EA
:102EB00002438A4B1B1D1A6006E0884A121D1268E5
:102EC0008243864B1B1D1A60704739B1834A0C320E
:102ED00012680243814B0C331A6006E07F4A0C32C1
:102EE000126882437D4B0C331A60704739B17B4ABC
:102EF000103212680243794B10331A6006E0774AA9
:102F0000103212688243754B10331A60704739B122
:102F1000724A243A12680243704B243B1A6006E05E
:102F20006E4A243A126882436C4B243B1A60704705
:102F300039B16A4A203A12680243684B203B1A6052
:102F400006E0664A203A12688243644B203B1A60CE
:102F5000704739B1614A1C3A126802435F4B1C3B0F
:102F60001A6006E05D4A1C3A126882435B4B1C3BC8
:102F70001A60704739B1594A143A12680243574BE4
:102F8000143B1A6006E0554A143A12688243534BC8
:102F9000143B1A60704739B1504A103A1268024324
:102FA0004E4B103B1A6006E04C4A103A12688243BE
:102FB0004A4B103B1A60704739B1484A1C321268BC
:102FC0000243464B1C331A6006E0444A1C32126826
:102FD0008243424B1C331A60704739B13F4A20325A
:102FE000126802433D4B20331A6006E03B4A203210
:102FF00012688243394B20331A60704739B1374A1F
:10300000243212680243354B24331A6006E0334AF7
:10301000243212688243314B24331A60704739B12D
:103020002E4A2C32126802432C4B2C331A6006E0D5
:103030002A4A2C3212688243284B2C331A6070477C
:1030400039B1264A303212680243244B30331A60B9
:1030500006E0224A303212688243204B30331A6035
:103060007047012808D11D493C31096841F0080129
:103070001A4A3C32116007E018493C31096821F0D6
:103080000801164A3C321160704739B1134A273A99
:1030900012780243114B273B1A7006E00F4A273A79
:1030A000127882430D4B273B1A7070470B48403013
:1030B000006840F08070094940310860704701465F
:1030C0000020064A283A12680A400AB1012000E0AE
:1030D0000020704701492639087070473438024093
:1030E00010B50446FB48844208D101218014FFF743
:1030F00052FF0021A014FFF74EFF3CE0F648844247
:1031000008D101210014FFF735FF00212014FFF73B
:1031100031FF30E0F148844208D10121C013FFF7AC
:1031200029FF0021E013FFF725FF24E0EC4884424B
:1031300008D101214014FFF72EFF00216014FFF792
:103140002AFF18E0E748844209D101210805FFF76A
:1031500022FF00214FF48010FFF71DFF0BE0E24833
:10316000844208D101214805FFF715FF00214FF4E3
:103170000010FFF710FF10BD10B50022028802F406
:1031800041520B884C8823438C882343CC882343AB
:103190000C8923434C8923438C892343CC892343C3
:1031A0001A430280838B4FF2FF74234083830B8A80
:1031B000038210BD2DE9F04F0025022300244FF0BB
:1031C000010900220026002794469046B0F81CA072
:1031D0004FF2400B0AEA0B0AA0F81CA04FF0020ABB
:1031E000A0F820A0858BD1F808A0BAF1020F01D178
:1031F00000BF82E0B1F804A0BAF1000F02D14FF095
:10320000010901E04FF00209DFF8E0A2DAF800A0BE
:103210000AF4000ABAF1000F09D0DFF8D0A2DAF8F8
:1032200000A02AF4000ADFF8C4B2CBF800A0DFF84F
:10323000BCA20AF17C0ADAF800A0CAF3881CDFF805
:10324000ACA20AF17C0ADAF800A0CAF30278DFF82F
:103250009CA2AAF1040ADAF800A00AF03F07DFF8FE
:103260008CA2AAF1040ADAF800A00AF4800ABAF5DE
:10327000800F08D1DFF878A2BAFBF7FA0AFB0CFA44
:10328000BAFBF8F607E0DFF86CA2BAFBF7FA0AFB24
:103290000CFABAFBF8F6B1F806A0BAF5007F0ED129
:1032A0004FEA162A0AEB8A0A4FEA4A0AD1F808B00E
:1032B000BAFBFBFA0AF1050A1FFA8AF20FE04FEA9D
:1032C000491AB6FBFAFA0AEB8A0A4FEA4A0AD1F817
:1032D00008B0BAFBFBFA0AF1050A1FFA8AF24FF0AE
:1032E0000A0AB2FBFAF202F00104A2EB040ACAF3E2
:1032F0004F034FF6FF7A0AEA0424022B01DBFF2B6F
:1033000001DD02230024B1F806A04AEA040A4AEAD1
:10331000030AA0F820A0B1F804A0B1F80CB04AEA62
:103320000B0AB1F802B04AEA0B0AB1F800B04AEA57
:103330000B0A4AF4006A4AEA05058583BDE8F08F66
:103340000021018041808180C18001814181818192
:10335000C181072101827047002101804180818065
:10336000C1800221816000218181704721B10288E2
:1033700042F04002028004E002884FF6BF731A4018
:103380000280704721B1828B42F48062828304E024
:10339000828B4FF6FF331A408283704702884FF2C8
:1033A000FF731A40028002880A4302807047B1F519
:1033B000804F04D1028842F48042028004E00288F7
:1033C0004BF6FF731A40028070474FF6FF6291423E
:1033D00004D0028842F48072028004E002884FF632
:1033E000FF631A400280704721B1828842F00402D4
:1033F000828004E082884FF6FB731A408280704717
:1034000021B1828842F01002828004E082884FF667
:10341000EF731A408280704730B500220023848BFE
:103420004FF240052C40848302240484828B0C8854
:10343000B4F5007F01D00C8814B94FF4807308E014
:103440000C88B4F5407F03D00C88B4F5807F00D1A0
:1034500000238C888D892C434D882C431C4344F4D5
:1034600000642243828330BD014688897047818190
:10347000704721B1028842F40052028004E00288C1
:103480004DF6FF731A4002807047018841F4805165
:103490000180704702460020012901D0108B00E016
:1034A000908A70470146088A70471AB183880B4397
:1034B000838002E083888B438380704730B500248B
:1034C00000230C110125A540ABB2AAB185881D438C
:1034D000858014E00030014000380040003C00408E
:1034E00000340140005001400054014008380240BF
:1034F00000127A000024F40085889D43858030BD49
:103500000246002013890B400BB1012000E000208F
:103510007047CA4302817047F0B50246002000247C
:103520000023002501F00F070126BE40B4B20B11A5
:1035300001269E40B3B2968806EA03051689264006
:1035400016B10DB1012000E00020F0BD10B5002241
:1035500001F00F040123A3409AB2D343038110BDAD
:1035600010B501218803FFF716FD00214FF48040BC
:10357000FFF711FD10BD1C49086070471B49086228
:10358000704730B500228B071C0F0F2303FA04F29B
:10359000154B08338C1053F824309343124C0834E5
:1035A0008D1044F8253023468C1053F824308C07B6
:1035B000240F00FA04F423430B4C08348D1044F814
:1035C000253030BD0949DC31086070470849086082
:1035D0007047002004492031096801F4807109B165
:1035E000012000E000207047003801400000274221
:1035F0000004274210B50446FA48844208D101214C
:103600001020FFF7C8FC00211020FFF7C4FC57E092
:10361000F548844209D101214804FFF7ABFC0021A1
:103620004FF40030FFF7A6FC4AE0F048844209D18D
:1036300001218804FFF79EFC00214FF48020FFF752
:1036400099FC3DE0EA48844209D10121C804FFF712
:1036500091FC00214FF40020FFF78CFC30E0E5489E
:10366000844209D101210805FFF784FC00214FF4B1
:103670008010FFF77FFC23E0DF48844208D101215E
:103680002020FFF788FC00212020FFF784FC17E0B2
:10369000DA48844209D101218807FFF76BFC002139
:1036A0004FF08040FFF766FC0AE0D548844207D11E
:1036B00001214005FFF75EFC00216005FFF75AFC81
:1036C00010BD2DE9FF4705460E460024A14600BF68
:1036D000A046B08900B100BF2C8A24F44054F08881
:1036E00004432C82AC8941F20C608443B088318958
:1036F0000843718908430443AC81AC8A24F44074C4
:10370000B0890443AC826846FFF7C5FAB5488542E4
:1037100002D0B948854202D1DDF80C9001E0DDF815
:103720000890A88900F4004040B109EBC90000EB03
:10373000091031684900B0FBF1F707E009EBC90057
:1037400000EB091031688900B0FBF1F76420B7FB8A
:10375000F0F004012009642101FB1078A88900F42D
:10376000004040B1322000EBC800B0FBF1F000F0A7
:103770000700044308E0322000EB08106421B0FB8E
:10378000F1F000F00F0004432C81BDE8FF874FF4F7
:103790001651016000218180C18001810C2141818D
:1037A00000218181704710B502460020108A20F464
:1037B00070600B884C8823438C882343CC88234338
:1037C0001843108210BD0021018041808180C1809A
:1037D000704721B1828942F40052828104E08289DB
:1037E0004DF6FF731A4082817047028B02F47F42CC
:1037F0000283028B0A430283704721B1828942F41B
:103800000042828103E08289C2F30E028281704706
:1038100021B1828A42F40062828204E0828A4FF2FD
:10382000FF731A4082827047C1F30802828070479A
:1038300001468888C0F308007047028A4FF6F0738B
:103840001A400282028A0A430282704721B18289A9
:1038500042F00202828104E082894FF6FD731A4031
:103860008281704782894FF2FF731A408281828978
:103870000A4382817047028A4FF6DF731A40028240
:10388000028A0A430282704721B1028A42F48042CE
:10389000028204E0028A4BF6FF731A4002827047EC
:1038A000818941F001018181704721B1828A42F012
:1038B0000802828204E0828A4FF6F7731A408282FD
:1038C0007047028BD2B20283028B42EA012202834A
:1038D000704721B1828A42F02002828204E0828A0B
:1038E0004FF6DF731A408282704721B1828A42F01C
:1038F0001002828204E0828A4FF6EF731A408282BD
:103900007047828A4FF6FB731A408282828A0A438A
:103910008282704721B1828A42F00202828204E0F0
:10392000828A4FF6FD731A40828270471AB1838AE9
:103930000B43838202E0838A8B4383827047F0B516
:103940000346002400260025002040F66A17B942ED
:1039500000D100BF1846C1F3421401F01F06012731
:1039600007FA06F5012C01D10C3004E0022C01D13C
:10397000103000E014301AB107682F43076002E0EE
:103980000768AF430760F0BD02460020B1F5007F35
:1039900000D100BF13880B400BB1012000E00020D4
:1039A000704701F40072B2F5007F00D100BFCA4336
:1039B0000280704770B502460024002300250020D5
:1039C00040F66A16B14200D100BFC1F3421501F0C2
:1039D0001F03012606FA03F3012D13D19689334004
:1039E00017E0000000100140004400400048004083
:1039F000004C00400050004000140140007800409E
:103A0000007C0040022D02D1168A334001E0968AE4
:103A100033400C12012606FA04F41688344013B120
:103A20000CB1012000E0002070BD10B50022002381
:103A300040F66A14A14200D100BF0A12012494404A
:103A4000A3B2DC43048010BD002041490860091D79
:103A50000860091D0860091D08603E483C49143192
:103A60000860704700213A498279002A3AD00A4614
:103A7000126803689A430B461A600A1D12680368AD
:103A80009A430B1D1A60027911440A6803681A43AD
:103A90000A602F4A0832126803689A432C4B083395
:103AA0001A601A1D126803689A43294B0C331A6076
:103AB0004279102A0ED11A1F126803681A43244B48
:103AC00008331A601A1D126803681A43204B0C331E
:103AD0001A600DE01E49427911440A6803681A43CE
:103AE0000A6005E0027911440A6803689A430A6093
:103AF00070470021016001710C2141710021817129
:103B000070471349103109680143114A103211609E
:103B10007047014600200E4A143212680A400AB16A
:103B2000012000E000207047094914310860704707
:103B300001460020064A143212680A400AB10120E8
:103B400000E000207047024914310860704700000F
:103B5000003C0140FFFF7F0010B50446FE48844250
:103B600008D101210846FFF716FA00210120FFF7CE
:103B700012FA9DE0B4F1804F08D101210846FFF709
:103B8000F9F900210120FFF7F5F991E0F3488442AB
:103B900008D101210220FFF7EDF900210220FFF7F3
:103BA000E9F985E0EE48844208D101210420FFF7BD
:103BB000E1F900210420FFF7DDF979E0E9488442CA
:103BC00008D101210820FFF7D5F900210820FFF7CF
:103BD000D1F96DE0E448844208D101211020FFF7BB
:103BE000C9F900211020FFF7C5F961E0DF488442E0
:103BF00008D101212020FFF7BDF900212020FFF787
:103C0000B9F955E0DA48844208D101210220FFF7D2
:103C1000C2F900210220FFF7BEF949E0D5488442ED
:103C200009D101210804FFF7B6F900214FF48030D3
:103C3000FFF7B1F93CE0D048844209D101214804A2
:103C4000FFF7A9F900214FF40030FFF7A4F92FE0A6
:103C5000CA48844209D101218804FFF79CF9002158
:103C60004FF48020FFF797F922E0C548844208D13D
:103C700001214020FFF77EF900214020FFF77AF96B
:103C800016E0C048844208D101218020FFF772F974
:103C900000218020FFF76EF90AE0BB48844207D17B
:103CA00001218015FFF766F90021A015FFF762F9E1
:103CB00010BD00220288A84B98420ED0AC4B98420F
:103CC0000BD0B0F1804F08D0A44B984205D0A44B44
:103CD000984202D0A34B984204D14FF68F731A40FA
:103CE0004B881A43A04B984207D0A04B984204D06F
:103CF0004FF6FF431A400B891A4302804B68C36298
:103D00000B880385944B984202D0994B984201D17D
:103D10008B7A03860123838270474FF0FF31416025
:103D2000002101800181418081727047018582827A
:103D300070470A46002101884FF68F7319401143DE
:103D40000180704741627047C16270470146486A0E
:103D500070470146088D704721B1028842F0020287
:103D6000028004E002884FF6FD731A40028070471B
:103D700021B1028842F00402028004E002884FF67A
:103D8000FB731A400280704721B1028842F0800222
:103D9000028004E002884FF67F731A400280704769
:103DA00002884FF6F7731A40028002880A430280A5
:103DB000704702884FF6FF431A40028002880A4388
:103DC0000280704721B1028842F00102028004E0C3
:103DD00002884FF6FE731A400280704770B50024C7
:103DE00000220023058C4FF6FE7635400584028CB8
:103DF0008388048B4FF68F752C40B51E2C400D88A0
:103E00002C43751E2A408D892A434D882A43524DE2
:103E1000A84202D0564DA84213D14FF6F7752A405A
:103E2000CD892A434FF6FB752A408D882A434FF6E9
:103E3000FF652B404FF6FF552B400D8A2B434D8AD3
:103E40002B43838004838D684563028470BD70B505
:103E5000002400220023058C4FF6EF7635400584C0
:103E6000028C8388048B48F6FF752C404FF6FF4583
:103E70002C400D884FF6FF7606EA05252C434FF6B9
:103E8000DF752A408D8906EA05152A434D8806EA22
:103E900005152A43304DA84202D0354DA8421DD108
:103EA0004FF67F752A40CD894FF6FF7606EA051555
:103EB0002A434FF6BF752A408D8806EA05152A4326
:103EC0004FF6FF352B404FF2FF752B400D8A06EA67
:103ED00085052B434D8A06EA85052B4383800483A1
:103EE0008D688563028470BD70B5002400220023B4
:103EF000058C4FF6FF6635400584028C8388848BE1
:103F00004FF68F752C404FF6FC752C400D882C43D6
:103F10004FF6FF552A408D894FF6FF7606EA0525B4
:103F20002A434D8806EA05252A430B4DA84202D0B4
:103F30000F4DA84238D14FF2FF752A40CD894FF678
:103F4000FF7606EA05252A434FF6FF352A408D887D
:103F500006EA05252A4319E000000140000400405C
:103F600000080040000C0040001000400014004019
:103F7000000401400040014000440140004801406D
:103F800000180040001C0040002000404EF6FF7565
:103F90002B404DF6FF752B400D8A06EA05152B4385
:103FA0004D8A06EA05152B43838084838D68C5639B
:103FB000028470BD70B5002200230024058C4EF6EB
:103FC000FF7635400584038C8488828B48F6FF7524
:103FD0002A404FF6FF452A400D884FF6FF7606EA45
:103FE00005252A434DF6FF752B408D8906EA0535D8
:103FF0002B434D8806EA05352B43FE4DA84202D0DF
:10400000FD4DA84208D14BF6FF752C400D8A4FF6A6
:10401000FF7606EA85152C43848082838D680564CB
:10402000038470BD00210180418081808160818195
:10403000C18101824182704770B50346002000248F
:104040001846183001258D40ACB21D8CA5431D8447
:1040500009B108290AD100EB610005684FF68F7697
:10406000354005600568154305600FE00D1FC5F379
:104070004E052844056848F6FF763540056005681A
:104080004FF6FF7606EA02263543056070BD4163B0
:10409000704781637047C1637047016470470A4687
:1040A0000021018B4FF68F73194011430183704734
:1040B0000A460021018B48F6FF7319404FF6FF7343
:1040C00003EA02231943018370470A460021818BCA
:1040D0004FF68F7319401143818370470A460021C0
:1040E000818B48F6FF7319404FF6FF7303EA0223F2
:1040F0001943818370470A460021018B4FF6F773FD
:1041000019401143018370470A460021018B4FF289
:10411000FF7319404FF6FF7303EA0223194301832B
:1041200070470A460021818B4FF6F77319401143FF
:10413000818370470A460021818B4FF2FF7319403B
:104140004FF6FF7303EA02231943818370470A463F
:104150000021018B4FF6FB73194011430183704717
:104160000A460021018B4FF6FF3319404FF6FF73CB
:1041700003EA02231943018370470A460021818B19
:104180004FF6FB7319401143818370470A460021A3
:10419000818B4FF6FF3319404FF6FF7303EA02237A
:1041A0001943818370470A460021018B4FF67F73C4
:1041B00019401143018370470A460021018BC1F366
:1041C0000E014FF6FF7303EA022319430183704780
:1041D0000A460021818B4FF67F731940114381837A
:1041E00070470A460021818BC1F30E014FF6FF7321
:1041F00003EA02231943818370470A460021018C98
:104200004FF6FD7319401143018470470A4600219F
:10421000018C4FF6F77319401143018470470A4629
:104220000021018C4FF6DF7319404FF6FF7303EA4C
:1042300002131943018470470A460021018C4FF68E
:104240007F7319404FF6FF7303EA02131943018489
:1042500070470A460021018C4FF6FF5319404FF674
:10426000FF7303EA02231943018470470A460021C1
:10427000018C4FF2FF7319404FF6FF7303EA0223DC
:104280001943018470470A460021018C4DF6FF73E3
:1042900019404FF6FF7303EA023319430184704754
:1042A00030B5002301248C40A3B2048C9C430484C9
:1042B000048C02FA01F5ADB22C43048430BD30B554
:1042C000002304248C40A3B2048C9C430484048CFB
:1042D00002FA01F5ADB22C43048430BD828B4FF25B
:1042E000FF331A408283828B4FF6FF7303EA012368
:1042F0001A4382837047F0B50C4615460021002210
:104300000026078C4EF6FF7C07EA0C070784818B9A
:10431000028C4FF6FF7707EA043640F6FF47394034
:104320004FF6FF7707EA052739434FF6FF7707EA8D
:104330000337394345F6FF773A4046F480573A430E
:1043400081830284F0BD828B4FF6F3731A4082831F
:10435000828B0A4382837047F0B50C4615460021D4
:1043600000220026078C4FF6FF6C07EA0C07078433
:10437000818B028C4FF6FF7707EA04264FF60C7705
:1043800039404FF6FF7707EA03172F4339434FF2BF
:10439000FF573A4046F480773A4381830284F0BD68
:1043A000028B4FF2FF331A400283028B4FF6FF73EA
:1043B00003EA01231A4302837047F0B50C46154601
:1043C000002100220026078C4FF6EF7C07EA0C073D
:1043D0000784018B028C4FF6FF7707EA041640F63C
:1043E000FF4739404FF6FF7707EA033739434FF667
:1043F000FF7703E0000001400004014007EA0527C1
:1044000039434FF65F773A4046F010073A4301834D
:104410000284F0BD028B4FF6F3731A400283028BC5
:104420000A4302837047F0B50C461546002100226E
:10443000068C4FF6FE773E400684018B028C4FF6C9
:104440000C7631407E1C06EA03162E4331434FF6AC
:10445000F576324044F00106324301830284F0BD18
:1044600070B505460C46208850B92389A28861881A
:104470002846FFF7D8FFE1882846FFF7CBFF25E065
:10448000208804280AD12389A28861882846FFF75A
:1044900094FFE1882846FFF783FF17E0208808286B
:1044A0000AD12389A28861882846FFF755FFE18851
:1044B0002846FFF748FF09E02389A288618828463B
:1044C000FFF719FFE1882846FFF708FF70BD0021BC
:1044D00001804180012181800021C18001817047DC
:1044E0002DE9F04105460C4600260127608808B9F1
:1044F000022600E00026A088012801D1022700E062
:1045000001272088A0B92389A28861882846FFF75F
:104510008AFFE1882846FFF77DFF23893A46314626
:104520002846FFF74AFFE1882846FFF739FF13E0E6
:104530002389A28861882846FFF73FFFE188284643
:10454000FFF72EFF23893A4631462846FFF76BFFD7
:10455000E1882846FFF75EFFBDE8F0810146486B21
:1045600070470146886B70470146C86B704701462B
:10457000086C70470A884B881A438B881A43CB888B
:104580001A430B891A434B891A438B891A43A0F8A3
:10459000442070470021018041808180C1800181D9
:1045A00041818181704731B1B0F8442042F400422A
:1045B000A0F8442005E0B0F84420C2F30E02A0F8B1
:1045C0004420704721B1828842F00402828004E0D6
:1045D00082884FF6FB731A408280704721B182882F
:1045E00042F00102828004E082884FF6FE731A4096
:1045F000828070471AB183890B43838102E08389EB
:104600008B43838170478182704702460020138A62
:104610000B400BB1012000E000207047CA4302822A
:10462000704730B50246002000230024158A05EAB1
:104630000103958905EA010413B10CB1012000E0E2
:10464000002030BDCA430282704741EA0203A0F84D
:10465000483070471AB183890B43838102E0838914
:104660008B438381704721B1828842F008028280A7
:1046700004E082884FF6F7731A4082807047018900
:104680004FF6F8721140018170470A4600210189F6
:104690004FF68F73194011430181704730B50446BE
:1046A0000D4629462046FFF7F0FF208940F007001D
:1046B000208130BD2DE9F04104460D4616461F46C7
:1046C000602D06D13B46012231462046FFF775FE9C
:1046D00005E03B46012231462046FFF7A4FE29466D
:1046E0002046FFF7D2FF208940F007002081BDE877
:1046F000F08130B50C4600210189C9B24FF6FF7533
:1047000005EA0325154325432943018130BD2DE9E1
:10471000F04105460E4617469846002443463A4661
:1047200031462846FFF7E5FF2C894FF6F870044024
:1047300044F007044FF68F70044044F070042C815D
:10474000BDE8F081F0B504460D4616461F463B46CF
:10475000324629462046FFF7CCFF208940F48040AE
:104760002081F0BD82884FF68F731A408280828844
:104770000A438280704702894FF6F8731A4002811B
:1047800002890A430281704702894FF67F731A40FB
:10479000028102890A4302817047F0B50C46154632
:1047A0001E460021002200230189028B038C4FF654
:1047B000F877394021434FF6FC473A4040F2011761
:1047C0003A434FF6DD773B404FF6FF7707EA06178F
:1047D0002F433B43018102830384F0BD21B18288D2
:1047E00042F08002828004E082884FF67F731A4094
:1047F00082807047A0F850107047000010B501216A
:104800000807FEF7B7FB00214FF08050FEF7B2FB20
:1048100010BD52490862704701460020504A106896
:1048200020F0E0000843106070474C490861704771
:104830004A49A031086070474849A4310860704770
:1048400001460020464A106820F4404008431060AA
:10485000704742490864704740494864704730B126
:104860003F49096841F440213D4A116005E03C4957
:10487000096821F440213A4A1160704718B10121BA
:10488000364AD16202E00021344AD162704718B141
:104890000121324A916202E00021304A9162704760
:1048A0002E494862704710B5024600202C4B18680C
:1048B00040F6034398431043294B1860294B1B686B
:1048C00043F00403274C2360012901D130BF00E0ED
:1048D00020BF244B1B6823F00403224C236010BD2F
:1048E00010B5024600201E4B186840F6034398435B
:1048F00010431B4B18601B4B1B6843F00403194CFF
:104900002360012901D130BF00E020BF154B1B6897
:1049100023F00403134C236010BD1148006840F0DD
:1049200002000F4908600F48006840F004000D497C
:10493000086000BF00BF30BF704701460020084A32
:1049400052680A400AB1012000E000207047044983
:10495000096841EA8001024A1160704700000E4276
:104960000070004010ED00E0704700000FB40449F3
:1049700010B503AA029800F0C1F810BC5DF814FB52
:104980009C0000202DE9F0410E46044600202062E4
:104990002046E168884730B3252805D0D4E90121B5
:1049A0009047206A401CF2E7E168204600278847CC
:1049B000050018D0A5F14100192802D820354FF480
:1049C00000673246294620462760FBF717FC40B1B6
:1049D000012804D0F61D26F007060836D8E7361D54
:1049E000D6E72846DAE7206ABDE8F08170B50C46C4
:1049F0000546012A05D02878800600D5EA690023FB
:104A000002E0012305E05B1C934202D2E05C002837
:104A1000F9D1A869E618C01AA861286A1844286262
:104A20002846AFF3008004E0D5E9012114F8010B1A
:104A30009047B442F8D32846AFF3008070BD032AF4
:104A400040F2308010F0030C00F0158011F8013BAB
:104A5000BCF1020F624498BF11F801CB00F8013B92
:104A600038BF11F8013BA2F1040298BF00F801CB56
:104A700038BF00F8013B11F0030300F05180083A01
:104A8000C0F0088051F8043B083A51F804CBA0E884
:104A90000810F5E7121D5CBF51F8043B40F8043BD9
:104AA000AFF30080D20724BF11F8013B11F801CB0E
:104AB00048BF11F8012B24BF00F8013B00F801CBDF
:104AC00048BF00F8012B7047704770477047704728
:104AD00010B5436913B1AFF3008001E0FFF786FF23
:104AE000012010BD127800F124010A7000224A70E2
:104AF0000122EDE711684FF0FF32E9E7074B70B58F
:104B00000D467B4400F043F80446284600F052F876
:104B100010B14FF0FF3070BD204670BDE7D9FFFFE8
:104B200010B5203AC0F00B80B1E81850203AA0E848
:104B30001850B1E81850A0E81850BFF4F5AF5FEA7C
:104B4000027C24BFB1E81850A0E8185044BF18C92F
:104B500018C0BDE810405FEA827C24BF51F8043BD6
:104B600040F8043B08BF7047D20728BF31F8023B2A
:104B700048BF11F8012B28BF20F8023B48BF00F8BE
:104B8000012B704701694A1C02610878704700B523
:104B90008FB0CDE901310021059105497944CDE976
:104BA000031011466846FFF7EDFE0FB000BD000090
:104BB000E5FFFFFF007B00F080007047754600F0C6
:104BC0002BF8AE4605006946534620F0070085469F
:104BD00018B020B5FDF78AFDBDE820404FF0000673
:104BE0004FF000074FF000084FF0000B21F00701D5
:104BF000AC46ACE8C009ACE8C009ACE8C009ACE818
:104C0000C0098D46704710B50446AFF300802046BA
:104C1000BDE81040FBF706BB00487047FC050020CC
:104C20004FF04070E1EE100A7047000000000000F5
:104C30000000002F000000000700070000147F1490
:104C40007F1400242A7F2A1200626408132300368E
:104C50004955225000000503000000001C224100BD
:104C6000000041221C000014083E08140008083E01
:104C70000808000000A060000008080808080000FC
:104C800060600000002010080402003E5149453ECB
:104C90000000427F400000426151494600214145E9
:104CA0004B31001814127F10002745454539003C50
:104CB0004A4949300001710905030036494949361E
:104CC00000064949291E000036360000000056360D
:104CD00000000008142241000014141414140000F1
:104CE0004122140800020151090600324959513E7F
:104CF000007C1211127C007F49494936003E414137
:104D00004122007F4141221C007F49494941007FE7
:104D100009090901003E4149497A007F0808087FD6
:104D20000000417F4100002040413F01007F081406
:104D30002241007F40404040007F020C027F007F04
:104D40000408107F003E4141413E007F09090906E9
:104D5000003E4151215E007F09192946004649491C
:104D600049310001017F0101003F4040403F001FE9
:104D70002040201F003F4038403F00631408146368
:104D800000070870080700615149454300007F4152
:104D9000410000552A552A55000041417F0000047A
:104DA00002010204004040404040000001020400B3
:104DB000002054545478007F484444380038444418
:104DC000442000384444487F0038545454180008A4
:104DD0007E0901020018A4A4A47C007F08040478C2
:104DE0000000447D4000004080847D00007F10284A
:104DF00044000000417F4000007C04180478007CDF
:104E00000804047800384444443800FC242424185E
:104E10000018242418FC007C08040408004854549A
:104E2000542000043F444020003C4040207C001CB3
:104E30002040201C003C4030403C004428102844C6
:104E4000001CA0A0A07C004464544C44141414140E
:104E5000141400000000000000000000000000002A
:104E6000FC000000000002000000000C020C020028
:104E700000000000000090D0BCD0BC9000030003F4
:104E800000001824FE448C000302070201001824CD
:104E9000D8B04C80000300010201C038E438E000C3
:104EA00001020201020208060000000000000000EA
:104EB0000000000000F804020000000102040002EB
:104EC00004F800000004020100009060F860900007
:104ED0000000010000002020FC2020000000010054
:104EE0000000000000000000080600000000202074
:104EF0002020200000000000000000000000000052
:104F00000002000000000080601C0200040300009A
:104F10000000F8040404F800010202020100000885
:104F2000FC00000000020302000018844424180062
:104F300003020202020008042424D8000102020233
:104F4000010040B088FC80000000000302003C2407
:104F50002424C400010202020100F824242CC00011
:104F60000102020201000C04E41C04000000030022
:104F70000000D8242424D800010202020100384491
:104F80004444F80000030202010000001000000089
:104F900000000200000000002000000000000600E9
:104FA00000000020508804020000000001029090E0
:104FB0009090900000000000000000020488502043
:104FC0000002010000001804C424180000000200C0
:104FD0000000F804E494F80001020202020000E07C
:104FE0009CF0800002030000030204FC2424D8008B
:104FF000020302020100F80404040C000102020290
:10500000010004FC0404F80002030202010004FC95
:1050100024740C0002030202030004FC24740C003C
:10502000020302000000F0080444CC400001020228
:10503000010004FC2020FC0402030000030204041D
:10504000FC040400020203020200000404FC040445
:1050500006040403000004FC24D00C040203020034
:10506000030204FC04000000020302020203FC3CF1
:10507000C03CFC0003000300030004FC30C4FC043B
:10508000020302000300F8040404F8000102020213
:10509000010004FC24241800020302000000F8842C
:1050A0008404F80001020207050004FC246498004F
:1050B000020302000302182424448C0003020202AB
:1050C00001000C04FC040C0000020302000004FCBC
:1050D0000000FC04000102020100047C80E01C04CA
:1050E0000000030000001CE03CE01C000003000383
:1050F0000000049C609C0400020300030200041CE6
:10510000E01C04000002030200000C84641C040084
:105110000203020203000000FE0202000000070476
:105120000400000E30C00000000000010200000278
:1051300002FE000000040407000000040204000056
:10514000000000000000000000000000080808083F
:1051500008080000020000000000000000000040FD
:10516000A0A0C00000010202030204FC2020C00035
:1051700000030202010000C02020600000010202C2
:10518000020000C02024FC0000010202030200C053
:10519000A0A0C0000001020202000020F8242404A4
:1051A0000002030202000040A0A0602000070A0ADB
:1051B0000A0404FC2020C0000203020003020020B5
:1051C000E4000000000203020000000020E40000F0
:1051D00008080807000004FC80E020200203020009
:1051E00003020404FC000000020203020200E020AB
:1051F000E020C00003000300030020E02020C000E6
:1052000002030200030200C02020C00000010202CD
:10521000010020E02020C000080F0A02010000C0A9
:105220002020E0000001020A0F0820E040202000BA
:105230000203020000000060A0A0200000020202A1
:1052400003000020F820000000000102020020E01E
:105250000020E00000010202030220E02080602024
:105260000000030100006080E08060000003000394
:10527000000020608060200002030003020020E0A4
:10528000208060200808070100000020A0602000A6
:10529000000203020200000020DE020000000007FE
:1052A0000400000000FF00000000000F00000002EA
:1052B000DE200000000407000000020102040402D6
:1052C00000000000000000000000000000000000DE
:1052D000000000000000000000F8000000000000D6
:1052E00000333000000000100C06100C0600000017
:1052F00000000000000040C07840C0784000043F3B
:1053000004043F040400007088FC0830000000180A
:1053100020FF211E0000F008F000E018000000212E
:105320001C031E211E0000F00888700000001E21D2
:1053300023241927211010160E0000000000000081
:10534000000000000000000000E01804020000005F
:1053500000071820400000020418E0000000004090
:10536000201807000000404080F08040400002020A
:10537000010F01020200000000F000000000010126
:10538000011F01010100000000000000000080B0CA
:10539000700000000000000000000000000000019C
:1053A00001010101010100000000000000000030C7
:1053B0003000000000000000000080601804006061
:1053C00018060100000000E010080810E000000FBF
:1053D000102020100F00001010F800000000002026
:1053E000203F20200000007008080888700000306E
:1053F0002824222130000030088888483000001816
:10540000202020110E000000C02010F8000000072E
:105410000424243F240000F80888880808000019A4
:10542000212020110E0000E0108888180000000FD5
:10543000112020110E0000380808C83808000000AC
:10544000003F000000000070880808887000001C01
:10545000222121221C0000E010080810E0000000BA
:10546000312222110F00000000C0C0000000000027
:10547000003030000000000000800000000000004C
:105480008060000000000000804020100800000143
:105490000204081020004040404040404000040406
:1054A00004040404040000081020408000000020D0
:1054B000100804020100007048080808F00000000D
:1054C000003036010000C030C828E810E00007189E
:1054D000272423140B000000C038E0000000203C0B
:1054E00023020227382008F8888888700000203FAF
:1054F000202020110E00C0300808080838000718C6
:1055000020202010080008F808080810E000203FBC
:10551000202020100F0008F88888E8081000203F9D
:1055200020202320180008F88888E8081000203F71
:10553000200003000000C0300808083800000718E9
:105540002020221E020008F808000008F808203F6A
:10555000210101213F20000808F808080000002070
:10556000203F2020000000000808F8080800C08044
:1055700080807F00000008F888C028180800203FBD
:1055800020012638200008F8080000000000203F15
:1055900020202020300008F8F800F8F80800203F0C
:1055A000003F003F200008F830C00008F808203F06
:1055B000200007183F00E01008080810E0000F1056
:1055C000202020100F0008F808080808F000203FED
:1055D000210101010000E01008080810E0000F1888
:1055E000242438504F0008F8888888887000203FAD
:1055F0002000030C302000708808080838000038AC
:10560000202121221C00180808F8080818000000B2
:10561000203F2000000008F808000008F808001FDC
:10562000202020201F000878880000C838080000CB
:1056300007380E010000F80800F80008F800033CE5
:105640000700073C030008186880806818082030AD
:105650002C03032C30200838C800C838080000008C
:10566000203F2000000010080808C8380800203833
:10567000262120201800000000FE02020200000087
:10568000007F40404000000C30C0000000000000DF
:1056900000010638C00000020202FE0000000040C7
:1056A00040407F00000000000402020204000000ED
:1056B00000000000000000000000000000008080EA
:1056C00080808080808000020204000000000000D2
:1056D00000000000000000008080808000000019B1
:1056E000242222223F2008F8008080000000003F92
:1056F000112020110E000000008080800000000EAC
:10570000112020201100000000808088F800000E89
:10571000112020103F200000808080800000001FAA
:10572000222222221300008080F08888881800201E
:10573000203F202000000000808080808000006BDF
:1057400094949493600008F8008080800000203FCB
:10575000210000203F2000809898000000000020D9
:10576000203F20200000000000809898000000C02A
:105770008080807F000008F8000080808000203F4B
:1057800024022D302000000808F80000000000204E
:10579000203F202000008080808080808000203F8B
:1057A00020003F20003F8080008080800000203F5C
:1057B000210000203F200000808080800000001F2A
:1057C000202020201F00808000808000000080FFBB
:1057D000A12020110E000000008080808000000EBB
:1057E000112020A0FF808080800080808000202009
:1057F0003F21200001000000808080808000003375
:10580000242424241900008080E08080000000000F
:10581000001F202000008080000000808000001F0A
:10582000202020103F2080808000008080800001A8
:105830000E300806010080800080008080800F30DC
:105840000C030C300F00008080008080800000205E
:10585000312E0E3120008080800000808080808189
:105860008E701806010000808080808080000021FA
:10587000302C2221300000000000807C0202000059
:105880000000003F404000000000FF00000000005A
:105890000000FF0000000002027C800000000040C9
:1058A000403F000000000006010102020404000065
:1058B00000000000000000000000000000000000E8
:1058C00000000000000000000000000000000000D8
:1058D000000000000000000000000000000000F0D8
:1058E000F0F0000000000000000000017F01000057
:1058F000000000000000001C1C1C00000000000054
:105900008060301C8C60301C0C0000000000000027
:105910000000000000000000000000000000000087
:105920000000000000E00000000000E00000008631
:10593000E69F86868686E69F860000011F0101019C
:1059400001011F010100000080C06020F820E0C0BC
:105950000000000003070C18FF70E1810000000048
:10596000070F10107F100F0700008060206080007C
:105970000000E02000000F3020309F70DC37103036
:10598000C0000000100E03000718101807000000E8
:10599000C02020E0C0000000000080E01F38E88741
:1059A00003C43C040000070F1810100B070D101063
:1059B000080000808C4C380000000000000000004F
:1059C00000000000000000000000000000000000D7
:1059D00000000000000000000000000080E030082F
:1059E00004000000000000FEFF01000000000000B5
:1059F00000000000030F1820400000040830E08081
:105A00000000000000000000000001FFFE00000098
:105A10000000004020180F030000000000000000FC
:105A200000000000C00000000000004266663C1854
:105A3000FF183C6666420000000000000300000002
:105A400000000000000000008000000000000010C6
:105A500010101010FF1010101010000000000000B7
:105A60000300000000000000000000000000000033
:105A700000000000000000000000000000000080A6
:105A80008C4C380000000000000000000000000006
:105A90000000000000000010101010101010101076
:105AA00010000000000000000000000000000000E6
:105AB00000000000000000000000000000000000E6
:105AC00000000000000000001C1C1C000000000082
:105AD00000000000000000000000E0380C000000A2
:105AE000000080701C03000000000060380E010000
:105AF000000000000000000080C060202060C08026
:105B0000000000FEFF010000000001FFFE00000198
:105B1000070E181010180E0701000000808080C0CA
:105B2000E000000000000000000000FFFF00000097
:105B3000000000001010101F1F1010100000008047
:105B4000402020202060C08000000003030080402F
:105B500020381F070000001C1A1918181818181FE1
:105B600000000080C020202060C0800000000003F2
:105B700003001010182FE780000000070F1010100E
:105B800010180F070000000000000000C0E0F00047
:105B9000000000C0B088868180FFFF808000000088
:105BA00000000010101F1F1010000000E060606077
:105BB00060606060000000003F1008080818F0E016
:105BC000000000070B101010101C0F030000000055
:105BD00080C040202020E0C0000000FCFF21100811
:105BE000080818F0E0000001070C18101010080F4A
:105BF00003000000C0E06060606060E060000000E2
:105C000003000000E0180700000000000000001F73
:105C10001F00000000000080C0602020202060C025
:105C200080000087EF2C1818303068CF8300000701
:105C30000F0810101010180F07000000C0C020201F
:105C40002020C0800000001F3F604040402010FF27
:105C5000FE0000000C1C101010080F0300000000D4
:105C60000000000000000000000000000000000E26
:105C70000E0E0000000000000000001C1C1C0000B4
:105C80000000000000000000000000000000000014
:105C90000000000C0C000000000000000000005894
:105CA00038000000000000000000000000804020DC
:105CB00010000000102844820100000000000000D5
:105CC00000000000010204081000000000000000B5
:105CD0000000000000000084848484848484848420
:105CE0008400000000000000000000000000000030
:105CF00010204080000000000000000000000000B4
:105D00000182442810000000100804020100000075
:105D1000000000C020201010101030E0C000000370
:105D2000030000F010080C070300000000001C1C1A
:105D30001C0000000000000000C040602020204047
:105D4000C00000FCFF01F00E03C1FE03807F0001D4
:105D5000070E08111110110904020000000080E074
:105D6000E000000000000000807C4340477FF88096
:105D7000000010181F1000000000131F1C1020E06E
:105D8000E02020202060C080000000FFFF101010E5
:105D900010182FE78000101F1F1010101010180F80
:105DA0000700000080C0402020202060E00000FCB0
:105DB000FF0100000000000001000001070E1810A4
:105DC00010100804030020E0E02020202040C080C4
:105DD000000000FFFF000000000001FFFE00101F98
:105DE0001F10101018080E07010020E0E0202020EE
:105DF00020202060800000FFFF101010107C0000A9
:105E00000000101F1F10101010101018060020E0C6
:105E1000E020202020206060800000FFFF10101094
:105E2000107C00000100101F1F1000000000000087
:105E30000000000080C06020202040E0000000FC46
:105E4000FF0100004040C0C140400001070E181093
:105E500010100F0F000020E0E0200000000020E004
:105E6000E02000FFFF101010101010FFFF00101FA7
:105E70001F1000000000101F1F100000202020E055
:105E8000E020202000000000000000FFFF000000D4
:105E9000000000001010101F1F1010100000000064
:105EA0000000202020E0E020202000000000000072
:105EB00000FFFF0000000060E0808080C07F3F00A6
:105EC000000020E0E020000020A06020200000FF73
:105ED000FF30187CE3C000000000101F1F100000FE
:105EE00001131F1C181020E0E0200000000000003B
:105EF000000000FFFF000000000000000000101F75
:105F00001F10101010101018060020E0E0E0000034
:105F10000000E0E0E02000FF013FFEC0E01E01FFC6
:105F2000FF00101F1000031F0300101F1F1020E0B0
:105F3000E0C0000000000020E02000FF0003071C7C
:105F400078E08000FF00101F100000000000030F29
:105F50001F00000080C060202060C080000000FEA4
:105F6000FF010000000000FFFE000001070E1810F6
:105F700010180C07010020E0E0202020202060C045
:105F8000800000FFFF2020202020301F0F00101F66
:105F90001F100000000000000000000080C0602012
:105FA0002060C080000000FEFF010000000000FF34
:105FB000FE000001070E1111133C7C67210020E058
:105FC000E0202020202060C0800000FFFF10103063
:105FD000F0D0080F0700101F1F10000000030F1C57
:105FE00010100080C060202020204040E00000070A
:105FF0000F0C1818303060E08100001F0C081010E2
:106000001010180F07008060202020E0E0202020E2
:1060100060800100000000FFFF00000000010000A0
:106020000000101F1F100000000020E0E020000012
:1060300000000020E02000FFFF0000000000000042
:10604000FF0000070F181010101010080700206044
:10605000E0E02000000020E060200000077FF880E2
:1060600000807C03000000000000071F1C070000E8
:10607000000020E0E02000E0E0200020E020000719
:10608000FFF8E01FFFFCE01F00000000031F0300FB
:10609000011F03000000002060E0A0000020E0607D
:1060A0002000000000038F7CF8C6010000000010F3
:1060B000181E130001171F1810002060E0E02000D8
:1060C000000020E06020000001073EF8E018070013
:1060D000000000000010101F1F10100000000080C2
:1060E0006020202020A0E0E0200000000000C0F0A0
:1060F0003E0F0300000000101C1F17101010101896
:1061000006000000000000FC040404040400000079
:10611000000000FF00000000000000000000007F01
:10612000404040404000000010E00000000000003F
:10613000000000000000031C608000000000000060
:106140000000000000030C70800000000404040440
:1061500004FC0000000000000000000000FF000040
:106160000000000040404040407F00000000000070
:106170000010080C040C08100000000000000000D3
:10618000000000000000000000000000000000000F
:1061900000000000000000000000000000000000FF
:1061A00000000000000000000000808080808080EF
:1061B00080808080808000000004040808000000C7
:1061C00000000000000000000000000000000000CF
:1061D00000000000000000000000000000000000BF
:1061E000000000000000000098D844642424FCF85B
:1061F0000000000F1F18101010081F1F101800209B
:10620000E0F000000000000000000000FFFF1808A0
:1062100004040CF8F00000001F0F18101010180FE5
:10622000030000000000000000000000000000E08B
:10623000F8180404043C3800000000030F0C101090
:106240001010080600000000000000000020E0F030
:10625000000000E0F81C04040408FFFF0000000335
:106260000F18101010081F0F080000000000000099
:106270000000000000000000E0F8484444444C786E
:1062800070000000030F0C1810101008040000002C
:10629000000080C0602020E0C00000040404FFFF74
:1062A000040404040000000010101F1F1010100050
:1062B00000000000000000000000000000000000DE
:1062C00070F88C04048CF874040C007076CF8D8DFB
:1062D0008D89C87870000020E0F000000000000008
:1062E00000000000FFFF08040404FCF80000001098
:1062F0001F1F100000101F1F100000000000006092
:106300006000000000000000040404FCFC00000029
:10631000000000001010101F1F10101000000000DF
:1063200000000000006060000000000000000404A5
:1063300004FCFC0000000000C0C08080C07F3F0063
:1063400000000020E0F0000000000000000000005D
:10635000FFFF80C0F41C0404000000101F1F110088
:10636000031F1C1010000000202020E0F00000009F
:1063700000000000000000FFFF000000000000001F
:106380001010101F1F10101000000000000000006F
:1063900000000000000004FCFC0804FCFC0804FCF5
:1063A000FC00101F1F10001F1F10001F1F100000F7
:1063B000000000000000000000000004FCFC0808D1
:1063C0000404FCF8000000101F1F100000101F1F25
:1063D000100000000000000000000000000000E0CD
:1063E000F0180C04040C18F0E00000030F0C10105F
:1063F00010100C0F0300000000000000000000005F
:1064000000000004FCFC080404040CF8F000008008
:10641000FFFF889010101C0F030000000000000018
:1064200000000000000000E0F81C04040408F8FC70
:10643000000000030F1810109088FFFF800000007C
:1064400000000000000000000000040404FCFC1038
:106450000804040C0C001010101F1F101010000076
:10646000000000000000000000000000000000002C
:106470003078CCC48484840C1C0000001E181010DA
:106480001011190F06000000000000C000000000FD
:10649000000000040404FFFF0404040000000000E6
:1064A00000000F1F1010100C000000000000000082
:1064B0000000000000000004FCFE00000004FCFEE0
:1064C000000000000F1F181010081F0F0800000028
:1064D0000000000000000000000000040C3CFCC4B0
:1064E0000000C43C0C0400000000010F1E0E01005F
:1064F0000000000000000000000000000000043C5C
:10650000FCC400E47CFC84807C040000071F0700BE
:1065100000071F070000000000000000000000004E
:1065200000000004041C7CE4C0341C0404000010BF
:10653000101C1601131F1C181000000000000000A2
:1065400000000000000000040C3CFCC400C43C043B
:1065500004000000C080C1370E01000000000000F0
:106560000000000000000000000000001C0404C443
:10657000F47C1C0400000000101C1F1711101018E0
:106580000E0000000000000000F80C0400000000F5
:106590000000001028EF00000000000000000000D4
:1065A000003F60400000000000000000FF0000000D
:1065B0000000000000000000FF00000000000000DC
:1065C00000000000FF00000000000000040CF800C4
:1065D00000000000000000000000EF281000000094
:1065E0000000000040603F000000000000000018B4
:1065F00006020204081020203008000000000000FD
:10660000000000000000000000000000000000008A
:1066100000000000F010101010FF10101010F0001B
:10662000000000000F04040404FF040404040F002D
:1066300000004040405F555555755555555F4040E9
:1066400040000040200F094989790909090F2040BD
:10665000000000FE02424ACA4A4ACA4A4A4202FEB0
:10666000000000FF40504C4340404F50505C40FF02
:1066700000000000F888888888FF88888888F800EB
:10668000000000001F080808087F888888889F800D
:10669000F00080828282828282E2A2928A86828056
:1066A0008000000000000040807F0000000000002B
:1066B0000000101010FF109008888888FF888888D4
:1066C00008000444827F01808040432C10284681CA
:1066D00080000010101010D030FF30D0121C1010AD
:1066E000000010080402010000FF0000010204087D
:1066F000100004040484E43C2724242424E4040437
:10670000040004020100FF0909090949897F00000A
:10671000000000FE225A8600FE9292929292FE00A3
:10672000000000FF04080700FF4020030C14224172
:10673000400000804020180680000718204080009C
:10674000000001002070282621202024386000014C
:106750000100001012929292929292121202FE0086
:1067600000000000003F101010103F0040807F002C
:106770000000000000C080808080808080FC8480D9
:106780008080808080C0C0000000000000FF7F404B
:106790004040404040FF40404040404040FF7F007C
:1067A000000000000000000000000000007F7000FA
:1067B00000000000000000000000000000000000D9
:1067C000000000000000000000FCF80000000000D5
:1067D0000000000000000000000000000000FFFEBC
:1067E000020202020202020202FFFF02020202028F
:1067F00002020202FF0300000000000000001F1F51
:10680000040404040404040404FFFF040404040452
:10681000040404041F000000000000000000000049
:106820000000000000000000007F3F0000000000AA
:106830000000000000000000000000000000000058
:106840000000000000000000000000000000000048
:1068500000000000000000F8F8F0F07020000000D8
:106860000000000000000000000000000000000028
:106870000000000000000000000000000000000018
:106880000000800000000000000000000000000088
:1068900000000000000000FFFFFFFF0000000000FC
:1068A00000000000000000000000000000008080E8
:1068B00000000000000000000000000000000000D8
:1068C000000000FFFFFE0606060606060606060690
:1068D00006060606060606FFFFFFFF060606060674
:1068E00006060606060606060606060606FFFFFF5D
:1068F000FF07020000000000000000000000000090
:10690000000000FFFFFF000000000000000000008A
:1069100000000000000000FFFFFFFF00000000007B
:1069200000000000000000000000000000FFFFFF6A
:10693000FF00000000000000000000000000000058
:10694000000000FFFFFF181818181818181818185A
:1069500018181818181818FFFFFFFF18181818181B
:1069600018181818181818181818181818FFFFFFF2
:10697000FF00000000000000000000000000000018
:106980000000020101000000000000000000000003
:1069900000000000000000FFFFFFFF0000000000FB
:1069A00000000000000000000000000000010100E5
:1069B00000000000000000000000000000000000D7
:1069C00000000000000000000000000000000000C7
:1069D00000000000000000FFFFFFFF0000000000BB
:1069E00000000000000000000000000000000000A7
:1069F0000000000000000000000000000000000097
:106A00000000000000000000000000000000000086
:106A1000000000000000001F1F0F0F00000000001A
:106A20000000000000000000000000000000000066
:106A30000000000000000000000000005C6A000888
:106A400000000020B4000000C4010008106B000822
:106A5000B4000020AC0B0000E0010008007A030A3B
:106A600000000000000000000102030406070809FE
:106A70000100000000000000000000000000000015
:106A80000000000000000000000000000000000006
:106A900000000000000000000000000000000000F6
:106AA0000000000000000000C43A68D9536A0B01DE
:106AB000D0791F39B0B18FA5059E0A88FFFFFFFF6F
:106AC000FFFFAA07020009BC000000000000FF074A
:106AD0008029FFFFFFFFFFFF00080000000000000B
:106AE00000000000000000000100000000000000A5
:106AF0000000000000000000000000000000000096
:106B00000000010203040102030406070809000053
:040000050800018965
:00000001FF
